{
  "contractName": "Fitup",
  "abi": [
    {
      "inputs": [],
      "stateMutability": "nonpayable",
      "type": "constructor"
    },
    {
      "anonymous": false,
      "inputs": [
        {
          "indexed": false,
          "internalType": "address",
          "name": "creator",
          "type": "address"
        },
        {
          "indexed": false,
          "internalType": "address",
          "name": "organisation",
          "type": "address"
        },
        {
          "indexed": false,
          "internalType": "uint256",
          "name": "amount",
          "type": "uint256"
        }
      ],
      "name": "BetCreated",
      "type": "event"
    },
    {
      "anonymous": false,
      "inputs": [
        {
          "indexed": false,
          "internalType": "address",
          "name": "issuer",
          "type": "address"
        },
        {
          "indexed": false,
          "internalType": "bool",
          "name": "success",
          "type": "bool"
        },
        {
          "indexed": false,
          "internalType": "address",
          "name": "organisation",
          "type": "address"
        },
        {
          "indexed": false,
          "internalType": "uint256",
          "name": "amount",
          "type": "uint256"
        }
      ],
      "name": "BetPayout",
      "type": "event"
    },
    {
      "anonymous": false,
      "inputs": [
        {
          "indexed": false,
          "internalType": "string",
          "name": "name",
          "type": "string"
        },
        {
          "indexed": false,
          "internalType": "address",
          "name": "organisation",
          "type": "address"
        }
      ],
      "name": "NgoAdded",
      "type": "event"
    },
    {
      "inputs": [
        {
          "internalType": "address",
          "name": "_organisation",
          "type": "address"
        }
      ],
      "name": "createBet",
      "outputs": [],
      "stateMutability": "payable",
      "type": "function",
      "payable": true
    },
    {
      "inputs": [
        {
          "internalType": "address",
          "name": "_from",
          "type": "address"
        }
      ],
      "name": "getBet",
      "outputs": [
        {
          "components": [
            {
              "internalType": "uint256",
              "name": "amount",
              "type": "uint256"
            },
            {
              "internalType": "address",
              "name": "organisation",
              "type": "address"
            }
          ],
          "internalType": "struct Fitup.Bet",
          "name": "",
          "type": "tuple"
        }
      ],
      "stateMutability": "view",
      "type": "function",
      "constant": true
    },
    {
      "inputs": [
        {
          "internalType": "bool",
          "name": "_success",
          "type": "bool"
        },
        {
          "internalType": "address",
          "name": "_issuer",
          "type": "address"
        }
      ],
      "name": "payoutBet",
      "outputs": [],
      "stateMutability": "nonpayable",
      "type": "function"
    },
    {
      "inputs": [
        {
          "internalType": "string",
          "name": "name",
          "type": "string"
        },
        {
          "internalType": "address",
          "name": "organisation",
          "type": "address"
        }
      ],
      "name": "addNgo",
      "outputs": [],
      "stateMutability": "nonpayable",
      "type": "function"
    }
  ],
  "bytecode": "0x608060405234801561001057600080fd5b50336000806101000a81548173ffffffffffffffffffffffffffffffffffffffff021916908373ffffffffffffffffffffffffffffffffffffffff160217905550610dea806100606000396000f3fe60806040526004361061003f5760003560e01c806384a3b70314610044578063a4b47b141461006d578063f7566b4914610089578063ffed3034146100c6575b600080fd5b34801561005057600080fd5b5061006b60048036038101906100669190610981565b6100ef565b005b610087600480360381019061008291906109dd565b610240565b005b34801561009557600080fd5b506100b060048036038101906100ab91906109dd565b61037f565b6040516100bd9190610a61565b60405180910390f35b3480156100d257600080fd5b506100ed60048036038101906100e89190610ab4565b6104bd565b005b60008054906101000a900473ffffffffffffffffffffffffffffffffffffffff1673ffffffffffffffffffffffffffffffffffffffff163373ffffffffffffffffffffffffffffffffffffffff161461014757600080fd5b600260405180604001604052808481526020018373ffffffffffffffffffffffffffffffffffffffff16815250908060018154018082558091505060019003906000526020600020906002020160009091909190915060008201518160000190805190602001906101b99291906106f6565b5060208201518160010160006101000a81548173ffffffffffffffffffffffffffffffffffffffff021916908373ffffffffffffffffffffffffffffffffffffffff16021790555050507fff0d9cddc930077e16068195f43478588ba6cea885fcd8b374d90b26e198a3b58282604051610234929190610b8b565b60405180910390a15050565b60003411610283576040517f08c379a000000000000000000000000000000000000000000000000000000000815260040161027a90610c2d565b60405180910390fd5b60405180604001604052803481526020018273ffffffffffffffffffffffffffffffffffffffff16815250600160003373ffffffffffffffffffffffffffffffffffffffff1673ffffffffffffffffffffffffffffffffffffffff1681526020019081526020016000206000820151816000015560208201518160010160006101000a81548173ffffffffffffffffffffffffffffffffffffffff021916908373ffffffffffffffffffffffffffffffffffffffff1602179055509050507f6cee1a555752930fbf754eaf391081b1875e2f7393a596c1e142696c97807c5933823460405161037493929190610c5c565b60405180910390a150565b61038761077c565b6000600160008473ffffffffffffffffffffffffffffffffffffffff1673ffffffffffffffffffffffffffffffffffffffff168152602001908152602001600020600001541161040c576040517f08c379a000000000000000000000000000000000000000000000000000000000815260040161040390610cdf565b60405180910390fd5b600160008373ffffffffffffffffffffffffffffffffffffffff1673ffffffffffffffffffffffffffffffffffffffff168152602001908152602001600020604051806040016040529081600082015481526020016001820160009054906101000a900473ffffffffffffffffffffffffffffffffffffffff1673ffffffffffffffffffffffffffffffffffffffff1673ffffffffffffffffffffffffffffffffffffffff16815250509050919050565b60008054906101000a900473ffffffffffffffffffffffffffffffffffffffff1673ffffffffffffffffffffffffffffffffffffffff163373ffffffffffffffffffffffffffffffffffffffff161461051557600080fd5b6000600160008373ffffffffffffffffffffffffffffffffffffffff1673ffffffffffffffffffffffffffffffffffffffff168152602001908152602001600020600001541161056457600080fd5b6000600160008373ffffffffffffffffffffffffffffffffffffffff1673ffffffffffffffffffffffffffffffffffffffff1681526020019081526020016000206000015490506000600160008473ffffffffffffffffffffffffffffffffffffffff1673ffffffffffffffffffffffffffffffffffffffff16815260200190815260200160002060010160009054906101000a900473ffffffffffffffffffffffffffffffffffffffff16905060011515841515141561066b578273ffffffffffffffffffffffffffffffffffffffff166108fc839081150290604051600060405180830381858888f19350505050158015610665573d6000803e3d6000fd5b506106b3565b8073ffffffffffffffffffffffffffffffffffffffff166108fc839081150290604051600060405180830381858888f193505050501580156106b1573d6000803e3d6000fd5b505b7fcbdc0b643e96a8c397e89a597ca52c887fe9fbb2e2715bb91a99721c6f264976838583856040516106e89493929190610d0e565b60405180910390a150505050565b82805461070290610d82565b90600052602060002090601f016020900481019282610724576000855561076b565b82601f1061073d57805160ff191683800117855561076b565b8280016001018555821561076b579182015b8281111561076a57825182559160200191906001019061074f565b5b50905061077891906107ac565b5090565b604051806040016040528060008152602001600073ffffffffffffffffffffffffffffffffffffffff1681525090565b5b808211156107c55760008160009055506001016107ad565b5090565b6000604051905090565b600080fd5b600080fd5b600080fd5b600080fd5b6000601f19601f8301169050919050565b7f4e487b7100000000000000000000000000000000000000000000000000000000600052604160045260246000fd5b610830826107e7565b810181811067ffffffffffffffff8211171561084f5761084e6107f8565b5b80604052505050565b60006108626107c9565b905061086e8282610827565b919050565b600067ffffffffffffffff82111561088e5761088d6107f8565b5b610897826107e7565b9050602081019050919050565b82818337600083830152505050565b60006108c66108c184610873565b610858565b9050828152602081018484840111156108e2576108e16107e2565b5b6108ed8482856108a4565b509392505050565b600082601f83011261090a576109096107dd565b5b813561091a8482602086016108b3565b91505092915050565b600073ffffffffffffffffffffffffffffffffffffffff82169050919050565b600061094e82610923565b9050919050565b61095e81610943565b811461096957600080fd5b50565b60008135905061097b81610955565b92915050565b60008060408385031215610998576109976107d3565b5b600083013567ffffffffffffffff8111156109b6576109b56107d8565b5b6109c2858286016108f5565b92505060206109d38582860161096c565b9150509250929050565b6000602082840312156109f3576109f26107d3565b5b6000610a018482850161096c565b91505092915050565b6000819050919050565b610a1d81610a0a565b82525050565b610a2c81610943565b82525050565b604082016000820151610a486000850182610a14565b506020820151610a5b6020850182610a23565b50505050565b6000604082019050610a766000830184610a32565b92915050565b60008115159050919050565b610a9181610a7c565b8114610a9c57600080fd5b50565b600081359050610aae81610a88565b92915050565b60008060408385031215610acb57610aca6107d3565b5b6000610ad985828601610a9f565b9250506020610aea8582860161096c565b9150509250929050565b600081519050919050565b600082825260208201905092915050565b60005b83811015610b2e578082015181840152602081019050610b13565b83811115610b3d576000848401525b50505050565b6000610b4e82610af4565b610b588185610aff565b9350610b68818560208601610b10565b610b71816107e7565b840191505092915050565b610b8581610943565b82525050565b60006040820190508181036000830152610ba58185610b43565b9050610bb46020830184610b7c565b9392505050565b7f546865206265742076616c75652068617320746f20626520626967676572207460008201527f68616e2030000000000000000000000000000000000000000000000000000000602082015250565b6000610c17602583610aff565b9150610c2282610bbb565b604082019050919050565b60006020820190508181036000830152610c4681610c0a565b9050919050565b610c5681610a0a565b82525050565b6000606082019050610c716000830186610b7c565b610c7e6020830185610b7c565b610c8b6040830184610c4d565b949350505050565b7f4e6f204265742065786973747320666f72207468617420416464726573730000600082015250565b6000610cc9601e83610aff565b9150610cd482610c93565b602082019050919050565b60006020820190508181036000830152610cf881610cbc565b9050919050565b610d0881610a7c565b82525050565b6000608082019050610d236000830187610b7c565b610d306020830186610cff565b610d3d6040830185610b7c565b610d4a6060830184610c4d565b95945050505050565b7f4e487b7100000000000000000000000000000000000000000000000000000000600052602260045260246000fd5b60006002820490506001821680610d9a57607f821691505b60208210811415610dae57610dad610d53565b5b5091905056fea26469706673582212207731c43211164cd78b82643ee598b67e1e28517c700719a39349b10f9d1e520464736f6c634300080b0033",
  "immutableReferences": {},
  "source": "// SPDX-License-Identifier: MIT\npragma solidity 0.8.11;\n\ncontract Fitup {\n    \n    address owner;\n\n    struct Ngo {\n        string name;\n        address organisation;\n    }\n\n    struct Bet {\n        uint256 amount;\n        address organisation; \n    }\n    mapping (address => Bet ) bets;\n    Ngo[] ngos;\n\n    event BetCreated(address creator, address organisation, uint256 amount);\n    event BetPayout(address issuer, bool success, address organisation, uint256 amount);\n    event NgoAdded(string name, address organisation);\n\n    modifier onlyOwner {\n        require(msg.sender == owner);\n        _;\n    }\n\n    constructor() {\n        owner = msg.sender;\n    }\n\n    function createBet(address _organisation) external payable {\n        require(msg.value > 0, \"The bet value has to be bigger than 0\");\n        bets[msg.sender] = Bet(msg.value, _organisation);\n        emit BetCreated(msg.sender, _organisation, msg.value);\n    }\n\n    function getBet(address _from) external view returns(Bet memory) {\n        require(bets[_from].amount > 0, \"No Bet exists for that Address\");\n        return bets[_from];\n    }\n    \n    function payoutBet(bool _success, address _issuer) external onlyOwner {\n        require(bets[_issuer].amount > 0);\n        uint256 _amount = bets[_issuer].amount;\n        address _organisation = bets[_issuer].organisation;\n        if(_success == true) {\n            payable(_issuer).transfer(_amount);\n        }\n        else {\n            payable(_organisation).transfer(_amount);\n        }\n        emit BetPayout(_issuer, _success, _organisation, _amount);\n    }\n\n    function addNgo(string memory name, address organisation) external onlyOwner {\n        ngos.push(Ngo(name, organisation));\n        emit NgoAdded(name, organisation);\n    }\n}",
  "sourcePath": "/Users/darjusch/development/ethereum/fitup/contracts/Fitup.sol",
  "compiler": {
    "name": "solc",
    "version": "0.8.11+commit.d7f03943.Emscripten.clang"
  },
  "schemaVersion": "3.4.4",
  "updatedAt": "2022-03-04T10:46:29.486Z",
  "networkType": "ethereum",
  "devdoc": {
    "kind": "dev",
    "methods": {},
    "version": 1
  },
  "userdoc": {
    "kind": "user",
    "methods": {},
    "version": 1
  }
}